:100000000EC01DC01CC01BC029C119C018C017C01C
:1000100016C015C014C013C012C011C010C01124E6
:100020001FBECFE5D2E0DEBFCDBF10E0A0E6B0E05E
:1000300001C01D92AB36B107E1F749D05AC1E0CFFC
:100040008AE08DBD88B7846088BF89B7846089BF26
:100050008EEC80BF0895B0990CC01092640080911E
:1000600069008A3F88F4809169008F5F80936900FE
:100070000895809164008A3F28F4809164008F5F26
:100080008093640010926900089580916400893023
:1000900011F080E008958FEF089580916900893014
:1000A00011F080E008958FEF089580916400893009
:1000B00031F080916900893011F080E008958FEF70
:1000C0000895B39B02C080E008958FEF0895F894DF
:1000D0001092600010926100109262001092630012
:1000E00010926500109266001092670010926800EE
:1000F00085B7806485BF82E187BB88BBC19AA0DFDA
:10010000789431E040E062E051E0313091F13130FB
:1001100020F0323009F08BC053C080916000909184
:100120006100A0916200B091630083709070A07034
:10013000B0700097A105B10511F42FEF01C020E0C8
:10014000C49A8091650090916600A0916700B0917B
:100150006800885E9340A040B04008F472C01092DE
:10016000650010926600109267001092680031E0FE
:1001700068C08091600090916100A0916200B09190
:1001800063008F779070A070B0700097A105B105E3
:1001900011F42FEF01C020E0C49810926500109276
:1001A00066001092670010926800809169008930A3
:1001B00009F048C04F5F463008F444C032E042C006
:1001C0008091600090916100A0916200B091630005
:1001D0008F709070A070B0700097A105B10511F4F8
:1001E0002FEF01C020E0C49880916900893041F46C
:1001F00010926500109266001092670010926800DD
:100200008091650090916600A0916700B0916800B0
:10021000845F9140A040B040A8F010926500109219
:100220006600109267001092680030E00BC01092D8
:10023000650010926600109267001092680030E02E
:1002400006C040E0222319F088B3862788BB50936C
:100250006A0080916A008130E1F357CF1F920F92BC
:100260000FB60F9211242F933F934F935F936F9389
:100270007F938F939F93AF93BF93EF93FF93EBDEA7
:100280008091600090916100A0916200B091630044
:100290000196A11DB11D8093600090936100A09311
:1002A0006200B09363008091650090916600A09118
:1002B0006700B09168000196A11DB11D8093650093
:1002C00090936600A0936700B093680010926A0054
:1002D000FF91EF91BF91AF919F918F917F916F911E
:1002E0005F914F913F912F910F900FBE0F901F90F4
:0602F0001895F894FFCF01
:00000001FF
